:020000040800F2
:10000000B1AA010000000000000000000000000094
:1000100000000000000000000000000000000000E0
:1000200000000000000000000000000000000000D0
:1000300000000000000000000000000000000000C0
:1000400000000000000000000000000000000000B0
:1000500000000000000000000000000000000000A0
:100060000000000000000000000000000000000090
:100070000000000000000000000000000000000080
:100080000000000000000000000000000000000070
:100090000000000000000000000000000000000060
:1000A0000000000000000000000000000000000050
:1000B0000000000000000000000000000000000040
:1000C0000000000000000000000000000000000030
:1000D0000000000000000000000000000000000020
:1000E0000000000000000000000000000000000010
:1000F0000000000000000000000000000000000000
:1001000000000000000000000000000000000000EF
:1001100000000000000000000000000000000000DF
:1001200000000000000000000000000000000000CF
:1001300000000000000000000000000000000000BF
:1001400000000000000000000000000000000000AF
:100150000000000000000000000000007370043088
:10016000170500001305C5FF8545F605637BB5003F
:1001700089816378B500170500001305C5002E9529
:1001800002859302002073A0027D970200009382F3
:1001900062E773907230970200009382E246739098
:1001A000C27E73E0C07E970200009382A23D7390EE
:1001B0005230970100189381E16C178100181301E8
:1001C00061E417150000130565F89705001893857D
:1001D00065E317060018130666EB63FAC500832271
:1001E000050023A0550011059105E3EAC5FE17059A
:1001F00000181305A5E9970500189385A5F2637704
:10020000B500232005001105E36DB5FE73F0023241
:1002100017150000130565C997100000E78080C41A
:1002200097100000E780E0CB97000000E780E02F08
:100230000145814597000000E780404B17130000FF
:10024000670043C301A073E00232828073F0023280
:0402500082800000A8
:100280000A50726F6772616D2068617320657869CA
:10029000746564207769746820636F64653A000050
:1002A000307800006E6D690A0000000074726170A1
:1002B0000A000000B71702409843B706FFE0B106F6
:1002C0001367170098C3D843758FD8C39843B706F0
:1002D000F7FEFD16758F98C39843B706FCFFFD1611
:1002E000758F98C3D843B70601DFFD16758FD8C345
:1002F00023A607029843B706F7EAFD16758F98C341
:100300003707FF0098C794434167D98E94C393077A
:10031000F7FF3717024014431396E60063440600C4
:10032000FD17F5FBB717024098439316E70063C328
:10033000060001A0D843B706C4DFFD16D8C3D843D2
:10034000D8C3D84313670740D8C3D843758FD8C3E1
:10035000D843B7062920558FD8C3D857BD76758F97
:10036000D8D7D857C166938616F1558FD8D79843FA
:10037000B7060004558F98C3B717024098439316E9
:100380004700E3DD06FE9843B7060010558F98C37B
:10039000B7170240984393162700E3DD06FE984303
:1003A000B7060001558F98C3B717024098439316BC
:1003B0006700E3DD06FED843719BD8C3D8431367BB
:1003C0002700D8C3371702405C43A18BF5DF82803A
:1003D0007971B705000822D47D462A8493850528C3
:1003E0000A8506D697100000E78040B679468A85D0
:1003F000094597100000E780C0B6A285094597001F
:100400000000E780E001B705000805469385052B4D
:10041000094597100000E780C0B401A079714ECE65
:10042000AE89B705000809469385052A22D426D24D
:100430004AD052CC56CA06D62A8971449710000079
:10044000E78020B23D4AA54AF154B3178A00B3F7BA
:100450003701B3D7870093F7F70F63ECFA0293875E
:10046000070393F7F70F05469305F1004A857114CA
:10047000A307F10097100000E780A0AEE31794FCFB
:10048000B250225492540259F249624AD24A45610A
:10049000828093877703F1B7B70700D223800700E4
:1004A000A38507001205B71700D23E9563E3A700A6
:1004B000828023A00700C107D5BFF327503093F7F0
:1004C00007FC93E73700739057308280B705000828
:1004D000411115469385452A054506C6971000002B
:1004E000E78020A8054597000000E780A0EE4111B5
:1004F0009347F5FF22C406C6139747012A8409E7EC
:1005000097000000E780C0FCB705000815469385FA
:10051000C52A054597100000E780A0A42285970012
:100520000000E78020EB411106C697000000E7803D
:10053000A0D81305700597000000E78020F697000B
:100540000000E780C0F7B2404101170300006700D8
:10055000C3CF828000000000000000000000000007
:10056000000000000000000000000000000000008B
:10057000000000000000000000000000000000007B
:100580005D7106C012C216C41AC61EC82ACA2ECC75
:1005900032CE36D03AD23ED442D646D872DA76DC63
:1005A0007ADEFEC0F322103496C0F322003096C2E9
:1005B000F322407C96C4732520348A85970000007E
:1005C000E78020F386427390123496427390023093
:1005D000A6427390427C82401242A2423243C243FE
:1005E0005245E245724682561257A2573258C258B7
:1005F000525EE25E725F864F6161730020300000E0
:10060000000000005D7106C012C216C41AC61EC8E2
:100610002ACA2ECC32CE36D03AD23ED442D646D892
:1006200072DA76DC7ADEFEC073D0E87E7350F97E33
:1006300073D0B97EF390D07E73700430B64273905D
:10064000427CA642739012349642739022348240C8
:100650001242A2423243C2435245E245724682569A
:100660001257A2573258C258525EE25E725F864FEE
:10067000616173002030AA82B68E214363C46E008C
:100680009102E11E8A0E3D433313D3011343F3FF5E
:10069000AE83B3E3C300B393D30103AE0200337E52
:1006A0006E00336E7E0023A0C2018280F18D2D8EFC
:1006B0004206D18D0CC982804CC982804CC5828093
:1006C0000C458280B712024003A3C2013363A3002A
:1006D00023AE62008280B712024003A3820133631B
:1006E000A30023AC62008280314597000000E780C0
:1006F000C0FE37150140130505C081450D468146F2
:100700000D4797000000E78040F78506E39BE6FE73
:10071000371501401305058081451146954625474B
:1007200097000000E78060F58506E39BE6FE37153D
:1007300001401305058097000000E780A0F895812F
:10074000BD892E8697000000E780A000CDB7014349
:100750008543094E8D4E114F954F19499D49214AA8
:10076000A54A294BAD4B314CB54C394DBD4D6301BC
:1007700066046300760A630FC60F630ED615630D19
:10078000E61B630CF621630B2627630A362D6309EB
:1007900046336300563B63076641630E7647630545
:1007A000864F630C96556303A65D630AB663828029
:1007B000970200189382028537150140130505C082
:1007C0008385020097000000E78080EF970000001B
:1007D000E78040688385120097000000E78040EEC4
:1007E00097000000E78000678385220097000000E3
:1007F000E78000ED97000000E780C0658385320048
:1008000097000000E780C0EB97000000E78080645D
:100810003DBF97F2FF179382227F371501401305E2
:1008200005C08385020097000000E78060E997001B
:100830000000E78020628385120097000000E780B7
:1008400020E897000000E780E060838522009700A1
:100850000000E780E0E697000000E780A05F838566
:10086000320097000000E780A0E597000000E780D5
:10087000605EF1BD97F2FF17938242793715014010
:10088000130505C08385020097000000E78040E360
:1008900097000000E780005C83851200970000004D
:1008A000E78000E297000000E780C05A83852200BD
:1008B00097000000E780C0E097000000E7808059C3
:1008C0008385320097000000E78080DF97000000FA
:1008D000E7804058ADBD97F2FF17938262733715DA
:1008E0000140130505C08385020097000000E780E2
:1008F00020DD97000000E780E05583851200970017
:100900000000E780E0DB97000000E780A0548385CB
:10091000220097000000E780A0DA97000000E7803F
:1009200060538385320097000000E78060D997000C
:100930000000E780205221BD97F2FF179382826D5D
:1009400037150140130505C083850200970000009C
:10095000E78000D797000000E780C04F8385120032
:1009600097000000E780C0D597000000E780804E28
:100970008385220097000000E78080D49700000064
:10098000E780404D8385320097000000E78040D328
:1009900097000000E780004C5DBB97F2FF17938241
:1009A000A26737150140130505C083850200970033
:1009B0000000E780E0D097000000E780A049838531
:1009C000120097000000E780A0CF97000000E780AA
:1009D00060488385220097000000E78060CE970082
:1009E0000000E78020478385320097000000E78001
:1009F00020CD97000000E780E04591BB97F2FF17FC
:100A00009382C26137150140130505C0838502003A
:100A100097000000E780C0CA97000000E78080438D
:100A20008385120097000000E78080C997000000CE
:100A3000E78040428385220097000000E78040C89D
:100A400097000000E7800041838532009700000096
:100A5000E78000C797000000E780C03FCDB997F25C
:100A6000FF179382E25B37150140130505C08385AC
:100A7000020097000000E780A0C497000000E78014
:100A8000603D8385120097000000E78060C39700F7
:100A90000000E780203C8385220097000000E7806B
:100AA00020C297000000E780E03A8385320097007B
:100AB0000000E780E0C097000000E780A03941B95E
:100AC00097F2FF179382025437150140130505C0B2
:100AD0008385020093C5F5FF97000000E78040BEC4
:100AE00097000000E78000378385120093C5F5FF6B
:100AF00097000000E780C0BC97000000E7808035C9
:100B00008385220093C5F5FF97000000E78040BB76
:100B100097000000E78000348385320093C5F5FF1D
:100B200097000000E780C0B997000000E78080329E
:100B300039B997F2FF179382224D371501401305FB
:100B400005C08385020093C5F5FF97000000E7808C
:100B500020B797000000E780E02F8385120093C53F
:100B6000F5FF97000000E780A0B597000000E78040
:100B7000602E8385220093C5F5FF97000000E78073
:100B800020B497000000E780E02C8385320093C5F5
:100B9000F5FF97000000E780A0B297000000E78013
:100BA000602B75B697F2FF179382424637150140C6
:100BB000130505C08385020093C5F5FF970000006B
:100BC000E78000B097000000E780C028838512000E
:100BD00093C5F5FF97000000E78080AE9700000006
:100BE000E78040278385220093C5F5FF970000002A
:100BF000E78000AD97000000E780C02583853200C4
:100C000093C5F5FF97000000E78080AB97000000D8
:100C1000E78040242DBE97F2FF179382623F37157D
:100C20000140130505C08385020093C5F5FF9700B9
:100C30000000E780E0A897000000E780A0218385FE
:100C4000120093C5F5FF97000000E78060A79700AA
:100C50000000E78020208385220093C5F5FF9700E0
:100C60000000E780E0A597000000E780A01E8385D4
:100C7000320093C5F5FF97000000E78060A497005D
:100C80000000E780201DE1B497F2FF1793828238BD
:100C900037150140130505C08385020093C5F5FF94
:100CA00097000000E780C0A197000000E780801A4D
:100CB0008385120093C5F5FF97000000E78040A0F0
:100CC00097000000E78000198385220093C5F5FF97
:100CD00097000000E780C09E97000000E780801723
:100CE0008385320093C5F5FF97000000E780409DA3
:100CF00097000000E780001699BC97F2FF179382D7
:100D0000A23137150140130505C08385020093C544
:100D1000F5FF97000000E780A09A97000000E780A9
:100D200060138385120093C5F5FF97000000E780EC
:100D3000209997000000E780E0118385220093C589
:100D4000F5FF97000000E780A09797000000E7807C
:100D500060108385320093C5F5FF97000000E7809F
:100D6000209697000000E780E00ED5B297F2FF17BB
:100D70009382C22A37150140130505C083850200FE
:100D800093C5F5FF97000000E7808093970000006F
:100D9000E780400C8385120093C5F5FF97000000A3
:100DA000E780009297000000E780C00A8385220058
:100DB00093C5F5FF97000000E78080909700000042
:100DC000E78040098385320093C5F5FF9700000056
:100DD000E780008F97000000E780C0078DBA97F288
:100DE000FF179382E22337150140130505C0838561
:100DF000020093C5F5FF97000000E780608C970024
:100E00000000E78020058385120093C5F5FF970059
:100E10000000E780E08A97000000E780A003838558
:100E2000220093C5F5FF97000000E78060899700D6
:100E30000000E78020028385320093C5F5FF97000C
:100E40000000E780E08797000000E780A00001B283
:100E500037837D01130303847D13E31F03FE828028
:100E6000AA858146014601451703000067008314E7
:100E7000411122C406C6970700009387671C2A8485
:100E800091C7814597000000E780801B970700000D
:100E90009387872B88431C5591C38297228597F0AF
:100EA000FFFFE78020534111970700009387072A2F
:100EB00022C417040000130464291D8C26C206C630
:100EC0000984BE8411E4B2402244924441018280EC
:100ED0007D1493172400A6979C438297E5B7411190
:100EE000970700009387872622C417040000130485
:100EF000E4251D8C26C24AC006C6098481443E8969
:100F00006396840297070000938747241704000024
:100F10001304C4231D8C098481443E89639F84008B
:100F2000B2402244924402494101828093972400B6
:100F3000CA979C4385048297E1B793972400CA9788
:100F40009C4385048297D9BF2A8309CA83830500FD
:100F5000230073007D16050385056DFA828097F7DF
:100F6000FF1793872712B2862E86AA858843170318
:100F7000000067008300411122C42A842E85B285B7
:100F8000368697F7FF1723AB071806C697000000B1
:100F9000E7808017FD576319F50097F7FF179387D0
:100FA000E7179C4391C31CC0B24022444101828098
:100FB00097F7FF179387870D9C432A8E8DE717F7C6
:100FC000FF171307E70C97F7FF1723A1E70C17F597
:100FD000FFF713052503BA8719C51C4117F5FF173D
:100FE000232CF512BA87D8437D487D556347E80422
:100FF000630E0E0203A887086301080493182700F4
:10100000C29823A0C8000323081005463316E60043
:101010003363C3002320681023A0D80889466317D0
:10102000DE0083264810558E2322C8109306170031
:101030000A07D4C3BA978CC701458280797152CC14
:1010400056CA5AC85EC606D622D426D24AD04ECE3A
:1010500062C42A8B2E8A97FAFF17938A2A03854B3C
:1010600003A40A0011C84440832984081389F4FFAB
:101070008A04A294635E0900B25022549254025929
:10108000F249624AD24A424BB24B224C45618280BD
:10109000630E0A00639509007D19F114E1BF9317EF
:1010A0002900CE9783A70708E39847FF5840DC4004
:1010B0007D176318270323222401F9DF032C440042
:1010C0006388090083A6091033972B01F98E89EEF6
:1010D0008297584083A70A00E31487F9E30EF4FAD5
:1010E00041B723A20400D1BF93162900CE968C42AB
:1010F00083A64910758F01E75A858297D9BF2E853F
:101100008297C1BF411106C622C48146014781476B
:1011100093080004730000002A84635A0500330416
:10112000804097000000E780600100C17D54228567
:10113000B24022444101828097F7FF17938787F4DA
:0411400088438280DE
:041144002000002067
:101148000001020404020100010203040104030275
:10115800020301000201000303000102030201006F
:101168000000000000000000000000000000000077
:101178000000000000000000000000000000000067
:101188000000000000000000000000000000000057
:101198000000000000000000000000000000000047
:1011A8000000000000000000000000000000000037
:1011B8000000000000000000000000000000000027
:0811C8002000002000000000DF
:040000050800015C92
:00000001FF
