:020000040800F2
:10000000B1AA010000000000000000000000000094
:1000100000000000000000000000000000000000E0
:1000200000000000000000000000000000000000D0
:1000300000000000000000000000000000000000C0
:1000400000000000000000000000000000000000B0
:1000500000000000000000000000000000000000A0
:100060000000000000000000000000000000000090
:100070000000000000000000000000000000000080
:100080000000000000000000000000000000000070
:100090000000000000000000000000000000000060
:1000A0000000000000000000000000000000000050
:1000B0000000000000000000000000000000000040
:1000C0000000000000000000000000000000000030
:1000D0000000000000000000000000000000000020
:1000E0000000000000000000000000000000000010
:1000F0000000000000000000000000000000000000
:1001000000000000000000000000000000000000EF
:1001100000000000000000000000000000000000DF
:1001200000000000000000000000000000000000CF
:1001300000000000000000000000000000000000BF
:1001400000000000000000000000000000000000AF
:100150000000000000000000000000007370043088
:10016000170500001305C5FF8545F605637BB5003F
:1001700089816378B500170500001305C5002E9529
:1001800002859302002073A0027D970200009382F3
:1001900062E773907230970200009382E246739098
:1001A000C27E73E0C07E970200009382A23D7390EE
:1001B0005230970100189381E16C178100181301E8
:1001C00061E417150000130525F8970500189385BD
:1001D00065E317060018130666EB63FAC500832271
:1001E000050023A0550011059105E3EAC5FE17059A
:1001F00000181305A5E9970500189385A5F2637704
:10020000B500232005001105E36DB5FE73F0023241
:1002100017150000130525C997100000E78040C49A
:1002200097100000E780A0CB97000000E780E02F48
:100230000145814597000000E780404B17130000FF
:10024000670003C301A073E00232828073F00232C0
:0402500082800000A8
:100280000A50726F6772616D2068617320657869CA
:10029000746564207769746820636F64653A000050
:1002A000307800006E6D690A0000000074726170A1
:1002B0000A000000B71702409843B706FFE0B106F6
:1002C0001367170098C3D843758FD8C39843B706F0
:1002D000F7FEFD16758F98C39843B706FCFFFD1611
:1002E000758F98C3D843B70601DFFD16758FD8C345
:1002F00023A607029843B706F7EAFD16758F98C341
:100300003707FF0098C794434167D98E94C393077A
:10031000F7FF3717024014431396E60063440600C4
:10032000FD17F5FBB717024098439316E70063C328
:10033000060001A0D843B706C4DFFD16D8C3D843D2
:10034000D8C3D84313670740D8C3D843758FD8C3E1
:10035000D843B7062920558FD8C3D857BD76758F97
:10036000D8D7D857C166938616F1558FD8D79843FA
:10037000B7060004558F98C3B717024098439316E9
:100380004700E3DD06FE9843B7060010558F98C37B
:10039000B7170240984393162700E3DD06FE984303
:1003A000B7060001558F98C3B717024098439316BC
:1003B0006700E3DD06FED843719BD8C3D8431367BB
:1003C0002700D8C3371702405C43A18BF5DF82803A
:1003D0007971B705000822D47D462A8493850528C3
:1003E0000A8506D697100000E78000B679468A8510
:1003F000094597100000E78080B6A285094597005F
:100400000000E780E001B705000805469385052B4D
:10041000094597100000E78080B401A079714ECEA5
:10042000AE89B705000809469385052A22D426D24D
:100430004AD052CC56CA06D62A8971449710000079
:10044000E780E0B13D4AA54AF154B3178A00B3F7FB
:100450003701B3D7870093F7F70F63ECFA0293875E
:10046000070393F7F70F05469305F1004A857114CA
:10047000A307F10097100000E78060AEE31794FC3B
:10048000B250225492540259F249624AD24A45610A
:10049000828093877703F1B7B70700D223800700E4
:1004A000A38507001205B71700D23E9563E3A700A6
:1004B000828023A00700C107D5BFF327503093F7F0
:1004C00007FC93E73700739057308280B705000828
:1004D000411115469385452A054506C6971000002B
:1004E000E780E0A7054597000000E780A0EE4111F6
:1004F0009347F5FF22C406C6139747012A8409E7EC
:1005000097000000E780C0FCB705000815469385FA
:10051000C52A054597100000E78060A42285970052
:100520000000E78020EB411106C697000000E7803D
:10053000A0D81305700597000000E78020F697000B
:100540000000E780C0F7B2404101170300006700D8
:10055000C3CF828000000000000000000000000007
:10056000000000000000000000000000000000008B
:10057000000000000000000000000000000000007B
:100580005D7106C012C216C41AC61EC82ACA2ECC75
:1005900032CE36D03AD23ED442D646D872DA76DC63
:1005A0007ADEFEC0F322103496C0F322003096C2E9
:1005B000F322407C96C4732520348A85970000007E
:1005C000E78020F386427390123496427390023093
:1005D000A6427390427C82401242A2423243C243FE
:1005E0005245E245724682561257A2573258C258B7
:1005F000525EE25E725F864F6161730020300000E0
:10060000000000005D7106C012C216C41AC61EC8E2
:100610002ACA2ECC32CE36D03AD23ED442D646D892
:1006200072DA76DC7ADEFEC073D0E87E7350F97E33
:1006300073D0B97EF390D07E73700430B64273905D
:10064000427CA642739012349642739022348240C8
:100650001242A2423243C2435245E245724682569A
:100660001257A2573258C258525EE25E725F864FEE
:10067000616173002030AA82B68E214363C46E008C
:100680009102E11E8A0E3D433313D3011343F3FF5E
:10069000AE83B3E3C300B393D30103AE0200337E52
:1006A0006E00336E7E0023A0C2018280F18D2D8EFC
:1006B0004206D18D0CC982804CC982804CC5828093
:1006C0000C458280B712024003A3C2013363A3002A
:1006D00023AE62008280B712024003A3820133631B
:1006E000A30023AC62008280314597000000E780C0
:1006F000C0FE37150140130505C081450D468146F2
:100700000D4797000000E78040F78506E39BE6FE73
:10071000371501401305058081451146954625474B
:1007200097000000E78060F58506E39BE6FE37153D
:1007300001401305058097000000E780A0F895812F
:10074000BD892E8697000000E78080000143854325
:10075000094E8D4E114F954F19499D49214AA54A81
:10076000294BAD4B314CB54C394DBD4D6300660442
:10077000630F7608630EC60F630DD615630CE61B78
:10078000630BF621630A26276309362D6308463377
:10079000630F563963066641630D76476304864FDF
:1007A000630B96556302A65D6309B6639702001852
:1007B0009382428537150140130505C083850200E9
:1007C00097000000E780C0EF97000000E7804068D6
:1007D0008385120097000000E78080EE97000000FC
:1007E000E78000678385220097000000E78040EDE6
:1007F00097000000E780C065838532009700000005
:10080000E78000EC97000000E78080640DB797F266
:10081000FF179382627F37150140130505C083855A
:10082000020097000000E780A0E997000000E78041
:1008300020628385120097000000E78060E897003F
:100840000000E780E0608385220097000000E780D9
:1008500020E797000000E780A05F838532009700C3
:100860000000E780E0E597000000E780605EC1B52A
:1008700097F2FF179382827937150140130505C05F
:100880008385020097000000E78080E39700000066
:10089000E780005C8385120097000000E78040E25B
:1008A00097000000E780C05A83852200970000006F
:1008B000E78000E197000000E780805983853200DF
:1008C00097000000E780C0DF97000000E7804058F5
:1008D000B9BD97F2FF179382A27337150140130534
:1008E00005C08385020097000000E78060DD970067
:1008F0000000E780E0558385120097000000E78044
:1009000020DC97000000E780A05483852200970038
:100910000000E780E0DA97000000E78060538385FD
:10092000320097000000E780A0D997000000E78020
:100930002052F5BB97F2FF179382C26D3715014025
:10094000130505C08385020097000000E78040D7AB
:1009500097000000E780C04F8385120097000000D9
:10096000E78000D697000000E780804E8385220054
:1009700097000000E780C0D497000000E780404D5A
:100980008385320097000000E78080D39700000045
:10099000E780004C69BB97F2FF179382E267371537
:1009A0000140130505C08385020097000000E78021
:1009B00020D197000000E780A049838512009700AE
:1009C0000000E780E0CF97000000E7806048838563
:1009D000220097000000E780A0CE97000000E7808B
:1009E00020478385320097000000E78060CD9700A4
:1009F0000000E780E04525BB97F2FF179382026273
:100A000037150140130505C08385020097000000DB
:100A1000E78000CB97000000E780804383851200C9
:100A200097000000E780C0C997000000E7804042BF
:100A30008385220097000000E78080C897000000AF
:100A4000E78000418385320097000000E78040C7BF
:100A500097000000E780C03FD9B997F2FF17938253
:100A6000225C37150140130505C0838502009700FD
:100A70000000E780E0C497000000E780603D8385C8
:100A8000120097000000E780A0C397000000E780F5
:100A9000203C8385220097000000E78060C2970019
:100AA0000000E780E03A8385320097000000E7808D
:100AB00020C197000000E780A03995B997F2FF1791
:100AC0009382425437150140130505C08385020007
:100AD00093C5F5FF97000000E78080BE97000000F7
:100AE000E78000378385120093C5F5FF970000006B
:100AF000E78000BD97000000E780803583852200F5
:100B000093C5F5FF97000000E78080BB97000000C9
:100B1000E78000348385320093C5F5FF970000001D
:100B2000E78000BA97000000E780803209B197F2B1
:100B3000FF179382624D37150140130505C0838569
:100B4000020093C5F5FF97000000E78060B79700AB
:100B50000000E780E02F8385120093C5F5FF970022
:100B60000000E780E0B597000000E780602E8385F5
:100B7000220093C5F5FF97000000E78060B497005E
:100B80000000E780E02C8385320093C5F5FF9700D5
:100B90000000E780E0B297000000E780602B41BED4
:100BA00097F2FF179382824637150140130505C05F
:100BB0008385020093C5F5FF97000000E78040B0F1
:100BC00097000000E780C0288385120093C5F5FFD9
:100BD00097000000E780C0AE97000000E780402744
:100BE0008385220093C5F5FF97000000E78040ADA4
:100BF00097000000E780C0258385320093C5F5FF8C
:100C000097000000E780C0AB97000000E780402419
:100C100039BE97F2FF179382A23F371501401305A3
:100C200005C08385020093C5F5FF97000000E780AB
:100C300020A997000000E780A0218385120093C5BA
:100C4000F5FF97000000E780A0A797000000E7806D
:100C500020208385220093C5F5FF97000000E780E0
:100C600020A697000000E780A01E8385320093C570
:100C7000F5FF97000000E780A0A497000000E78040
:100C8000201D75B497F2FF179382C23837150140C3
:100C9000130505C08385020093C5F5FF970000008A
:100CA000E78000A297000000E780801A8385120089
:100CB00093C5F5FF97000000E78080A09700000033
:100CC000E78000198385220093C5F5FF9700000097
:100CD000E780009F97000000E7808017838532003F
:100CE00093C5F5FF97000000E780809D9700000006
:100CF000E78000162DBC97F2FF179382E23137157B
:100D00000140130505C08385020093C5F5FF9700D8
:100D10000000E780E09A97000000E7806013838579
:100D2000120093C5F5FF97000000E78060999700D7
:100D30000000E780E0118385220093C5F5FF97004E
:100D40000000E780E09797000000E780601083854F
:100D5000320093C5F5FF97000000E780609697008A
:100D60000000E780E00EE1B297F2FF179382022BBA
:100D700037150140130505C08385020093C5F5FFB3
:100D800097000000E780C09397000000E780400CC8
:100D90008385120093C5F5FF97000000E78040921D
:100DA00097000000E780C00A8385220093C5F5FF05
:100DB00097000000E780C09097000000E78040099E
:100DC0008385320093C5F5FF97000000E780408FD0
:100DD00097000000E780C00799BA97F2FF17938247
:100DE000222437150140130505C08385020093C5F1
:100DF000F5FF97000000E780A08C97000000E780D7
:100E000020058385120093C5F5FF97000000E78059
:100E1000208B97000000E780A0038385220093C504
:100E2000F5FF97000000E780A08997000000E780A9
:100E300020028385320093C5F5FF97000000E7800C
:100E4000208897000000E780A000D5B037F3870026
:100E5000130333517D13E31F03FE8280AA8581466D
:100E6000014601451703000067008314411122C4A5
:100E700006C6970700009387671C2A8491C781459F
:100E800097000000E780801B970700009387872B5F
:100E900088431C5591C38297228597F0FFFFE78016
:100EA00060534111970700009387072A22C4170453
:100EB0000000130464291D8C26C206C60984BE8462
:100EC00011E4B24022449244410182807D14931780
:100ED0002400A6979C438297E5B74111970700002D
:100EE0009387872622C4170400001304E4251D8C71
:100EF00026C24AC006C6098481443E89639684029C
:100F00009707000093874724170400001304C423A5
:100F10001D8C098481443E89639F8400B240224431
:100F2000924402494101828093972400CA979C43CE
:100F300085048297E1B793972400CA979C43850460
:100F40008297D9BF2A8309CA8383050023007300CF
:100F50007D16050385056DFA828097F7FF17938745
:100F60006712B2862E86AA858843170300006700A1
:100F70008300411122C42A842E85B285368697F7D4
:100F8000FF1723AD071806C697000000E7808017FB
:100F9000FD576319F50097F7FF17938727189C43B0
:100FA00091C31CC0B24022444101828097F7FF17D1
:100FB0009387C70D9C432A8E8DE717F7FF171307FA
:100FC000270D97F7FF1723A3E70C17F5FFF7130576
:100FD0006503BA8719C51C4117F5FF17232EF512B3
:100FE000BA87D8437D487D556347E804630E0E02F7
:100FF00003A887086301080493182700C29823A058
:10100000C8000323081005463316E6003363C30007
:101010002320681023A0D80889466317DE008326A2
:101020004810558E2322C810930617000A07D4C310
:10103000BA978CC701458280797152CC56CA5AC87A
:101040005EC606D622D426D24AD04ECE62C42A8BA1
:101050002E8A97FAFF17938A6A03854B03A40A0026
:1010600011C84440832984081389F4FF8A04A29498
:10107000635E0900B250225492540259F249624A06
:10108000D24A424BB24B224C45618280630E0A0029
:10109000639509007D19F114E1BF93172900CE97DC
:1010A00083A70708E39847FF5840DC407D17631883
:1010B000270323222401F9DF032C4400638809005D
:1010C00083A6091033972B01F98E89EE8297584039
:1010D00083A70A00E31487F9E30EF4FA41B723A2C9
:1010E0000400D1BF93162900CE968C4283A64910E6
:1010F000758F01E75A858297D9BF2E858297C1BF28
:10110000411106C622C48146014781479308000465
:10111000730000002A84635A05003304804097005E
:101120000000E780600100C17D542285B240224466
:101130004101828097F7FF179387C7F48843828025
:04114000200000206B
:101144000001020404020100010203040403020179
:10115400010402070702040107030501010503074F
:10116400000000000000000000000000000000007B
:10117400000000000000000000000000000000006B
:10118400000000000000000000000000000000005B
:10119400000000000000000000000000000000004B
:1011A400000000000000000000000000000000003B
:1011B400000000000000000000000000000000002B
:0811C4002000002000000000E3
:040000050800015C92
:00000001FF
